{
  "address": "0x44e7c01a595e0Fe3E21e0f18fdd35E1cc416C13a",
  "abi": [
    {
      "inputs": [
        {
          "internalType": "string",
          "name": "_baseURI",
          "type": "string"
        }
      ],
      "stateMutability": "nonpayable",
      "type": "constructor"
    },
    {
      "anonymous": false,
      "inputs": [
        {
          "indexed": true,
          "internalType": "address",
          "name": "owner",
          "type": "address"
        },
        {
          "indexed": true,
          "internalType": "address",
          "name": "approved",
          "type": "address"
        },
        {
          "indexed": true,
          "internalType": "uint256",
          "name": "tokenId",
          "type": "uint256"
        }
      ],
      "name": "Approval",
      "type": "event"
    },
    {
      "anonymous": false,
      "inputs": [
        {
          "indexed": true,
          "internalType": "address",
          "name": "owner",
          "type": "address"
        },
        {
          "indexed": true,
          "internalType": "address",
          "name": "operator",
          "type": "address"
        },
        {
          "indexed": false,
          "internalType": "bool",
          "name": "approved",
          "type": "bool"
        }
      ],
      "name": "ApprovalForAll",
      "type": "event"
    },
    {
      "anonymous": false,
      "inputs": [
        {
          "indexed": false,
          "internalType": "string",
          "name": "newBaseURI",
          "type": "string"
        }
      ],
      "name": "BaseURIChanged",
      "type": "event"
    },
    {
      "anonymous": false,
      "inputs": [
        {
          "indexed": false,
          "internalType": "address",
          "name": "owner",
          "type": "address"
        },
        {
          "indexed": false,
          "internalType": "uint256",
          "name": "tokenId",
          "type": "uint256"
        }
      ],
      "name": "Minted",
      "type": "event"
    },
    {
      "anonymous": false,
      "inputs": [
        {
          "indexed": true,
          "internalType": "address",
          "name": "previousOwner",
          "type": "address"
        },
        {
          "indexed": true,
          "internalType": "address",
          "name": "newOwner",
          "type": "address"
        }
      ],
      "name": "OwnershipTransferred",
      "type": "event"
    },
    {
      "anonymous": false,
      "inputs": [
        {
          "indexed": true,
          "internalType": "address",
          "name": "from",
          "type": "address"
        },
        {
          "indexed": true,
          "internalType": "address",
          "name": "to",
          "type": "address"
        },
        {
          "indexed": true,
          "internalType": "uint256",
          "name": "tokenId",
          "type": "uint256"
        }
      ],
      "name": "Transfer",
      "type": "event"
    },
    {
      "inputs": [
        {
          "internalType": "address",
          "name": "to",
          "type": "address"
        },
        {
          "internalType": "uint256",
          "name": "tokenId",
          "type": "uint256"
        }
      ],
      "name": "approve",
      "outputs": [],
      "stateMutability": "nonpayable",
      "type": "function"
    },
    {
      "inputs": [
        {
          "internalType": "address",
          "name": "owner",
          "type": "address"
        }
      ],
      "name": "balanceOf",
      "outputs": [
        {
          "internalType": "uint256",
          "name": "",
          "type": "uint256"
        }
      ],
      "stateMutability": "view",
      "type": "function"
    },
    {
      "inputs": [],
      "name": "baseURI",
      "outputs": [
        {
          "internalType": "string",
          "name": "",
          "type": "string"
        }
      ],
      "stateMutability": "view",
      "type": "function"
    },
    {
      "inputs": [
        {
          "internalType": "uint256",
          "name": "tokenId",
          "type": "uint256"
        }
      ],
      "name": "getApproved",
      "outputs": [
        {
          "internalType": "address",
          "name": "",
          "type": "address"
        }
      ],
      "stateMutability": "view",
      "type": "function"
    },
    {
      "inputs": [
        {
          "internalType": "address",
          "name": "owner",
          "type": "address"
        },
        {
          "internalType": "address",
          "name": "operator",
          "type": "address"
        }
      ],
      "name": "isApprovedForAll",
      "outputs": [
        {
          "internalType": "bool",
          "name": "",
          "type": "bool"
        }
      ],
      "stateMutability": "view",
      "type": "function"
    },
    {
      "inputs": [],
      "name": "name",
      "outputs": [
        {
          "internalType": "string",
          "name": "",
          "type": "string"
        }
      ],
      "stateMutability": "view",
      "type": "function"
    },
    {
      "inputs": [],
      "name": "owner",
      "outputs": [
        {
          "internalType": "address",
          "name": "",
          "type": "address"
        }
      ],
      "stateMutability": "view",
      "type": "function"
    },
    {
      "inputs": [
        {
          "internalType": "uint256",
          "name": "tokenId",
          "type": "uint256"
        }
      ],
      "name": "ownerOf",
      "outputs": [
        {
          "internalType": "address",
          "name": "",
          "type": "address"
        }
      ],
      "stateMutability": "view",
      "type": "function"
    },
    {
      "inputs": [],
      "name": "renounceOwnership",
      "outputs": [],
      "stateMutability": "nonpayable",
      "type": "function"
    },
    {
      "inputs": [],
      "name": "safeMint",
      "outputs": [],
      "stateMutability": "nonpayable",
      "type": "function"
    },
    {
      "inputs": [
        {
          "internalType": "address",
          "name": "from",
          "type": "address"
        },
        {
          "internalType": "address",
          "name": "to",
          "type": "address"
        },
        {
          "internalType": "uint256",
          "name": "tokenId",
          "type": "uint256"
        }
      ],
      "name": "safeTransferFrom",
      "outputs": [],
      "stateMutability": "nonpayable",
      "type": "function"
    },
    {
      "inputs": [
        {
          "internalType": "address",
          "name": "from",
          "type": "address"
        },
        {
          "internalType": "address",
          "name": "to",
          "type": "address"
        },
        {
          "internalType": "uint256",
          "name": "tokenId",
          "type": "uint256"
        },
        {
          "internalType": "bytes",
          "name": "_data",
          "type": "bytes"
        }
      ],
      "name": "safeTransferFrom",
      "outputs": [],
      "stateMutability": "nonpayable",
      "type": "function"
    },
    {
      "inputs": [
        {
          "internalType": "address",
          "name": "operator",
          "type": "address"
        },
        {
          "internalType": "bool",
          "name": "approved",
          "type": "bool"
        }
      ],
      "name": "setApprovalForAll",
      "outputs": [],
      "stateMutability": "nonpayable",
      "type": "function"
    },
    {
      "inputs": [
        {
          "internalType": "string",
          "name": "uri",
          "type": "string"
        }
      ],
      "name": "setBaseURI",
      "outputs": [],
      "stateMutability": "nonpayable",
      "type": "function"
    },
    {
      "inputs": [
        {
          "internalType": "bytes4",
          "name": "interfaceId",
          "type": "bytes4"
        }
      ],
      "name": "supportsInterface",
      "outputs": [
        {
          "internalType": "bool",
          "name": "",
          "type": "bool"
        }
      ],
      "stateMutability": "view",
      "type": "function"
    },
    {
      "inputs": [],
      "name": "symbol",
      "outputs": [
        {
          "internalType": "string",
          "name": "",
          "type": "string"
        }
      ],
      "stateMutability": "view",
      "type": "function"
    },
    {
      "inputs": [
        {
          "internalType": "uint256",
          "name": "tokenId",
          "type": "uint256"
        }
      ],
      "name": "tokenURI",
      "outputs": [
        {
          "internalType": "string",
          "name": "",
          "type": "string"
        }
      ],
      "stateMutability": "view",
      "type": "function"
    },
    {
      "inputs": [],
      "name": "totalSupply",
      "outputs": [
        {
          "internalType": "uint256",
          "name": "",
          "type": "uint256"
        }
      ],
      "stateMutability": "view",
      "type": "function"
    },
    {
      "inputs": [
        {
          "internalType": "address",
          "name": "from",
          "type": "address"
        },
        {
          "internalType": "address",
          "name": "to",
          "type": "address"
        },
        {
          "internalType": "uint256",
          "name": "tokenId",
          "type": "uint256"
        }
      ],
      "name": "transferFrom",
      "outputs": [],
      "stateMutability": "nonpayable",
      "type": "function"
    },
    {
      "inputs": [
        {
          "internalType": "address",
          "name": "newOwner",
          "type": "address"
        }
      ],
      "name": "transferOwnership",
      "outputs": [],
      "stateMutability": "nonpayable",
      "type": "function"
    }
  ],
  "transactionHash": "0x748d4237ab373c0b79f139319b93d46abc8ced0f92aedaeaaa22f238d7d3faa8",
  "args": [
    "https://res.cloudinary.com/dyh2c5n8i/raw/upload/v1664330291/Zodiac_Info/"
  ],
  "solcInputHash": "27d3244cb305d2c5b97b3b9f70acf1ec",
  "bytecode": "0x60806040523480156200001157600080fd5b5060405162001d8338038062001d838339810160408190526200003491620001d1565b604080518082018252600b81526a115490cdcc8c4815195cdd60aa1b60208083019182528351808501909452600684526545524337323160d01b90840152815191929162000085916000916200012b565b5080516200009b9060019060208401906200012b565b505050620000b8620000b2620000d560201b60201c565b620000d9565b8051620000cd9060089060208401906200012b565b5050620002f3565b3390565b600680546001600160a01b038381166001600160a01b0319831681179093556040519116919082907f8be0079c531659141344cd1fd0a4f28419497f9722a3daafe3b4186f6b6457e090600090a35050565b8280546200013990620002a0565b90600052602060002090601f0160209004810192826200015d5760008555620001a8565b82601f106200017857805160ff1916838001178555620001a8565b82800160010185558215620001a8579182015b82811115620001a85782518255916020019190600101906200018b565b50620001b6929150620001ba565b5090565b5b80821115620001b65760008155600101620001bb565b60006020808385031215620001e4578182fd5b82516001600160401b0380821115620001fb578384fd5b818501915085601f8301126200020f578384fd5b815181811115620002245762000224620002dd565b604051601f8201601f19168101850183811182821017156200024a576200024a620002dd565b604052818152838201850188101562000261578586fd5b8592505b8183101562000284578383018501518184018601529184019162000265565b818311156200029557858583830101525b979650505050505050565b600281046001821680620002b557607f821691505b60208210811415620002d757634e487b7160e01b600052602260045260246000fd5b50919050565b634e487b7160e01b600052604160045260246000fd5b611a8080620003036000396000f3fe608060405234801561001057600080fd5b506004361061012c5760003560e01c80636c0360eb116100ad578063a22cb46511610071578063a22cb46514610240578063b88d4fde14610253578063c87b56dd14610266578063e985e9c514610279578063f2fde38b1461028c5761012c565b80636c0360eb1461020d57806370a0823114610215578063715018a6146102285780638da5cb5b1461023057806395d89b41146102385761012c565b806323b872dd116100f457806323b872dd146101b957806342842e0e146101cc57806355f804b3146101df5780636352211e146101f25780636871ee40146102055761012c565b806301ffc9a71461013157806306fdde031461015a578063081812fc1461016f578063095ea7b31461018f57806318160ddd146101a4575b600080fd5b61014461013f3660046112aa565b61029f565b604051610151919061142e565b60405180910390f35b6101626102e7565b6040516101519190611439565b61018261017d366004611328565b610379565b60405161015191906113c4565b6101a261019d366004611281565b6103c5565b005b6101ac61045d565b6040516101519190611910565b6101a26101c7366004611193565b61046e565b6101a26101da366004611193565b6104a6565b6101a26101ed3660046112e2565b6104c1565b610182610200366004611328565b61056f565b6101a26105a4565b610162610605565b6101ac610223366004611147565b610693565b6101a26106d7565b610182610722565b610162610731565b6101a261024e366004611247565b610740565b6101a26102613660046111ce565b610756565b610162610274366004611328565b610795565b610144610287366004611161565b6107c6565b6101a261029a366004611147565b6107f4565b60006001600160e01b031982166380ac58cd60e01b14806102d057506001600160e01b03198216635b5e139f60e01b145b806102df57506102df82610865565b90505b919050565b6060600080546102f690611988565b80601f016020809104026020016040519081016040528092919081815260200182805461032290611988565b801561036f5780601f106103445761010080835404028352916020019161036f565b820191906000526020600020905b81548152906001019060200180831161035257829003601f168201915b5050505050905090565b60006103848261087e565b6103a95760405162461bcd60e51b81526004016103a090611777565b60405180910390fd5b506000908152600460205260409020546001600160a01b031690565b60006103d08261056f565b9050806001600160a01b0316836001600160a01b031614156104045760405162461bcd60e51b81526004016103a090611847565b806001600160a01b031661041661089b565b6001600160a01b0316148061043257506104328161028761089b565b61044e5760405162461bcd60e51b81526004016103a090611652565b610458838361089f565b505050565b6000610469600761090d565b905090565b61047f61047961089b565b82610911565b61049b5760405162461bcd60e51b81526004016103a090611888565b610458838383610996565b61045883838360405180602001604052806000815250610756565b6104c961089b565b6001600160a01b03166104da610722565b6001600160a01b0316146105005760405162461bcd60e51b81526004016103a0906117c3565b60008151116105215760405162461bcd60e51b81526004016103a09061144c565b8051610534906008906020840190611027565b507f5411e8ebf1636d9e83d5fc4900bf80cbac82e8790da2a4c94db4895e889eedf6816040516105649190611439565b60405180910390a150565b6000818152600260205260408120546001600160a01b0316806102df5760405162461bcd60e51b81526004016103a0906116f9565b6105ae6007610ac9565b60006105ba600761090d565b90506105cd6105c761089b565b82610afd565b7f30385c845b448a36257a6a1716e6ad2e1bc2cbe333cde1e69fe849ad6511adfe6105f661089b565b82604051610564929190611415565b6008805461061290611988565b80601f016020809104026020016040519081016040528092919081815260200182805461063e90611988565b801561068b5780601f106106605761010080835404028352916020019161068b565b820191906000526020600020905b81548152906001019060200180831161066e57829003601f168201915b505050505081565b60006001600160a01b0382166106bb5760405162461bcd60e51b81526004016103a0906116af565b506001600160a01b031660009081526003602052604090205490565b6106df61089b565b6001600160a01b03166106f0610722565b6001600160a01b0316146107165760405162461bcd60e51b81526004016103a0906117c3565b6107206000610b17565b565b6006546001600160a01b031690565b6060600180546102f690611988565b61075261074b61089b565b8383610b69565b5050565b61076761076161089b565b83610911565b6107835760405162461bcd60e51b81526004016103a090611888565b61078f84848484610c0c565b50505050565b60606107a082610c3f565b6040516020016107b0919061139b565b6040516020818303038152906040529050919050565b6001600160a01b03918216600090815260056020908152604080832093909416825291909152205460ff1690565b6107fc61089b565b6001600160a01b031661080d610722565b6001600160a01b0316146108335760405162461bcd60e51b81526004016103a0906117c3565b6001600160a01b0381166108595760405162461bcd60e51b81526004016103a0906114c9565b61086281610b17565b50565b6001600160e01b031981166301ffc9a760e01b14919050565b6000908152600260205260409020546001600160a01b0316151590565b3390565b600081815260046020526040902080546001600160a01b0319166001600160a01b03841690811790915581906108d48261056f565b6001600160a01b03167f8c5be1e5ebec7d5bd14f71427d1e84f3dd0314c0f7b2291e5b200ac8c7c3b92560405160405180910390a45050565b5490565b600061091c8261087e565b6109385760405162461bcd60e51b81526004016103a090611606565b60006109438361056f565b9050806001600160a01b0316846001600160a01b0316148061096a575061096a81856107c6565b8061098e5750836001600160a01b031661098384610379565b6001600160a01b0316145b949350505050565b826001600160a01b03166109a98261056f565b6001600160a01b0316146109cf5760405162461bcd60e51b81526004016103a09061150f565b6001600160a01b0382166109f55760405162461bcd60e51b81526004016103a09061158b565b610a00838383610458565b610a0b60008261089f565b6001600160a01b0383166000908152600360205260408120805460019290610a34908490611945565b90915550506001600160a01b0382166000908152600360205260408120805460019290610a62908490611919565b909155505060008181526002602052604080822080546001600160a01b0319166001600160a01b0386811691821790925591518493918716917fddf252ad1be2c89b69c2b068fc378daa952ba7f163c4a11628f55a4df523b3ef91a4610458838383610458565b6000610ad48261090d565b825460010180845590915081106107525760405162461bcd60e51b81526004016103a0906118d9565b610752828260405180602001604052806000815250610cc2565b600680546001600160a01b038381166001600160a01b0319831681179093556040519116919082907f8be0079c531659141344cd1fd0a4f28419497f9722a3daafe3b4186f6b6457e090600090a35050565b816001600160a01b0316836001600160a01b03161415610b9b5760405162461bcd60e51b81526004016103a0906115cf565b6001600160a01b0383811660008181526005602090815260408083209487168084529490915290819020805460ff1916851515179055517f17307eab39ab6107e8899845ad3d59bd9653f200f220920489ca2b5937696c3190610bff90859061142e565b60405180910390a3505050565b610c17848484610996565b610c2384848484610cf5565b61078f5760405162461bcd60e51b81526004016103a090611477565b6060610c4a8261087e565b610c665760405162461bcd60e51b81526004016103a0906117f8565b6000610c70610e10565b90506000815111610c905760405180602001604052806000815250610cbb565b80610c9a84610e1f565b604051602001610cab92919061136c565b6040516020818303038152906040525b9392505050565b610ccc8383610f3a565b610cd96000848484610cf5565b6104585760405162461bcd60e51b81526004016103a090611477565b6000610d09846001600160a01b0316611021565b15610e0557836001600160a01b031663150b7a02610d2561089b565b8786866040518563ffffffff1660e01b8152600401610d4794939291906113d8565b602060405180830381600087803b158015610d6157600080fd5b505af1925050508015610d91575060408051601f3d908101601f19168201909252610d8e918101906112c6565b60015b610deb573d808015610dbf576040519150601f19603f3d011682016040523d82523d6000602084013e610dc4565b606091505b508051610de35760405162461bcd60e51b81526004016103a090611477565b805181602001fd5b6001600160e01b031916630a85bd0160e11b14905061098e565b506001949350505050565b6060600880546102f690611988565b606081610e4457506040805180820190915260018152600360fc1b60208201526102e2565b8160005b8115610e6e5780610e58816119c3565b9150610e679050600a83611931565b9150610e48565b60008167ffffffffffffffff811115610e9757634e487b7160e01b600052604160045260246000fd5b6040519080825280601f01601f191660200182016040528015610ec1576020820181803683370190505b5090505b841561098e57610ed6600183611945565b9150610ee3600a866119de565b610eee906030611919565b60f81b818381518110610f1157634e487b7160e01b600052603260045260246000fd5b60200101906001600160f81b031916908160001a905350610f33600a86611931565b9450610ec5565b6001600160a01b038216610f605760405162461bcd60e51b81526004016103a090611742565b610f698161087e565b15610f865760405162461bcd60e51b81526004016103a090611554565b610f9260008383610458565b6001600160a01b0382166000908152600360205260408120805460019290610fbb908490611919565b909155505060008181526002602052604080822080546001600160a01b0319166001600160a01b03861690811790915590518392907fddf252ad1be2c89b69c2b068fc378daa952ba7f163c4a11628f55a4df523b3ef908290a461075260008383610458565b3b151590565b82805461103390611988565b90600052602060002090601f016020900481019282611055576000855561109b565b82601f1061106e57805160ff191683800117855561109b565b8280016001018555821561109b579182015b8281111561109b578251825591602001919060010190611080565b506110a79291506110ab565b5090565b5b808211156110a757600081556001016110ac565b600067ffffffffffffffff808411156110db576110db611a1e565b604051601f8501601f1916810160200182811182821017156110ff576110ff611a1e565b60405284815291508183850186101561111757600080fd5b8484602083013760006020868301015250509392505050565b80356001600160a01b03811681146102e257600080fd5b600060208284031215611158578081fd5b610cbb82611130565b60008060408385031215611173578081fd5b61117c83611130565b915061118a60208401611130565b90509250929050565b6000806000606084860312156111a7578081fd5b6111b084611130565b92506111be60208501611130565b9150604084013590509250925092565b600080600080608085870312156111e3578081fd5b6111ec85611130565b93506111fa60208601611130565b925060408501359150606085013567ffffffffffffffff81111561121c578182fd5b8501601f8101871361122c578182fd5b61123b878235602084016110c0565b91505092959194509250565b60008060408385031215611259578182fd5b61126283611130565b915060208301358015158114611276578182fd5b809150509250929050565b60008060408385031215611293578182fd5b61129c83611130565b946020939093013593505050565b6000602082840312156112bb578081fd5b8135610cbb81611a34565b6000602082840312156112d7578081fd5b8151610cbb81611a34565b6000602082840312156112f3578081fd5b813567ffffffffffffffff811115611309578182fd5b8201601f81018413611319578182fd5b61098e848235602084016110c0565b600060208284031215611339578081fd5b5035919050565b6000815180845261135881602086016020860161195c565b601f01601f19169290920160200192915050565b6000835161137e81846020880161195c565b83519083019061139281836020880161195c565b01949350505050565b600082516113ad81846020870161195c565b64173539b7b760d91b920191825250600501919050565b6001600160a01b0391909116815260200190565b6001600160a01b038581168252841660208201526040810183905260806060820181905260009061140b90830184611340565b9695505050505050565b6001600160a01b03929092168252602082015260400190565b901515815260200190565b600060208252610cbb6020830184611340565b602080825260119082015270546573743a20696e76616c69642075726960781b604082015260600190565b60208082526032908201527f4552433732313a207472616e7366657220746f206e6f6e20455243373231526560408201527131b2b4bb32b91034b6b83632b6b2b73a32b960711b606082015260800190565b60208082526026908201527f4f776e61626c653a206e6577206f776e657220697320746865207a65726f206160408201526564647265737360d01b606082015260800190565b60208082526025908201527f4552433732313a207472616e736665722066726f6d20696e636f72726563742060408201526437bbb732b960d91b606082015260800190565b6020808252601c908201527f4552433732313a20746f6b656e20616c7265616479206d696e74656400000000604082015260600190565b60208082526024908201527f4552433732313a207472616e7366657220746f20746865207a65726f206164646040820152637265737360e01b606082015260800190565b60208082526019908201527f4552433732313a20617070726f766520746f2063616c6c657200000000000000604082015260600190565b6020808252602c908201527f4552433732313a206f70657261746f7220717565727920666f72206e6f6e657860408201526b34b9ba32b73a103a37b5b2b760a11b606082015260800190565b60208082526038908201527f4552433732313a20617070726f76652063616c6c6572206973206e6f74206f7760408201527f6e6572206e6f7220617070726f76656420666f7220616c6c0000000000000000606082015260800190565b6020808252602a908201527f4552433732313a2062616c616e636520717565727920666f7220746865207a65604082015269726f206164647265737360b01b606082015260800190565b60208082526029908201527f4552433732313a206f776e657220717565727920666f72206e6f6e657869737460408201526832b73a103a37b5b2b760b91b606082015260800190565b6020808252818101527f4552433732313a206d696e7420746f20746865207a65726f2061646472657373604082015260600190565b6020808252602c908201527f4552433732313a20617070726f76656420717565727920666f72206e6f6e657860408201526b34b9ba32b73a103a37b5b2b760a11b606082015260800190565b6020808252818101527f4f776e61626c653a2063616c6c6572206973206e6f7420746865206f776e6572604082015260600190565b6020808252602f908201527f4552433732314d657461646174613a2055524920717565727920666f72206e6f60408201526e3732bc34b9ba32b73a103a37b5b2b760891b606082015260800190565b60208082526021908201527f4552433732313a20617070726f76616c20746f2063757272656e74206f776e656040820152603960f91b606082015260800190565b60208082526031908201527f4552433732313a207472616e736665722063616c6c6572206973206e6f74206f6040820152701ddb995c881b9bdc88185c1c1c9bdd9959607a1b606082015260800190565b6020808252601b908201527f436f756e7465723a20696e6372656d656e74206f766572666c6f770000000000604082015260600190565b90815260200190565b6000821982111561192c5761192c6119f2565b500190565b60008261194057611940611a08565b500490565b600082821015611957576119576119f2565b500390565b60005b8381101561197757818101518382015260200161195f565b8381111561078f5750506000910152565b60028104600182168061199c57607f821691505b602082108114156119bd57634e487b7160e01b600052602260045260246000fd5b50919050565b60006000198214156119d7576119d76119f2565b5060010190565b6000826119ed576119ed611a08565b500690565b634e487b7160e01b600052601160045260246000fd5b634e487b7160e01b600052601260045260246000fd5b634e487b7160e01b600052604160045260246000fd5b6001600160e01b03198116811461086257600080fdfea2646970667358221220632347744cc3f69756c2e2ff68d2fbec46689a81628235213f37f8e808e3d64d64736f6c63430008000033",
  "libraries": {},
  "devdoc": {
    "kind": "dev",
    "methods": {
      "approve(address,uint256)": {
        "details": "See {IERC721-approve}."
      },
      "balanceOf(address)": {
        "details": "See {IERC721-balanceOf}."
      },
      "getApproved(uint256)": {
        "details": "See {IERC721-getApproved}."
      },
      "isApprovedForAll(address,address)": {
        "details": "See {IERC721-isApprovedForAll}."
      },
      "name()": {
        "details": "See {IERC721Metadata-name}."
      },
      "owner()": {
        "details": "Returns the address of the current owner."
      },
      "ownerOf(uint256)": {
        "details": "See {IERC721-ownerOf}."
      },
      "renounceOwnership()": {
        "details": "Leaves the contract without owner. It will not be possible to call `onlyOwner` functions anymore. Can only be called by the current owner. NOTE: Renouncing ownership will leave the contract without an owner, thereby removing any functionality that is only available to the owner."
      },
      "safeTransferFrom(address,address,uint256)": {
        "details": "See {IERC721-safeTransferFrom}."
      },
      "safeTransferFrom(address,address,uint256,bytes)": {
        "details": "See {IERC721-safeTransferFrom}."
      },
      "setApprovalForAll(address,bool)": {
        "details": "See {IERC721-setApprovalForAll}."
      },
      "supportsInterface(bytes4)": {
        "details": "See {IERC165-supportsInterface}."
      },
      "symbol()": {
        "details": "See {IERC721Metadata-symbol}."
      },
      "tokenURI(uint256)": {
        "details": "See {IERC721Metadata-tokenURI}."
      },
      "transferFrom(address,address,uint256)": {
        "details": "See {IERC721-transferFrom}."
      },
      "transferOwnership(address)": {
        "details": "Transfers ownership of the contract to a new account (`newOwner`). Can only be called by the current owner."
      }
    },
    "version": 1
  },
  "userdoc": {
    "kind": "user",
    "methods": {},
    "version": 1
  },
  "storageLayout": {
    "storage": [
      {
        "astId": 32228,
        "contract": "contracts/token/ERC721/ERC721Test.sol:ERC721Test",
        "label": "_name",
        "offset": 0,
        "slot": "0",
        "type": "t_string_storage"
      },
      {
        "astId": 32230,
        "contract": "contracts/token/ERC721/ERC721Test.sol:ERC721Test",
        "label": "_symbol",
        "offset": 0,
        "slot": "1",
        "type": "t_string_storage"
      },
      {
        "astId": 32234,
        "contract": "contracts/token/ERC721/ERC721Test.sol:ERC721Test",
        "label": "_owners",
        "offset": 0,
        "slot": "2",
        "type": "t_mapping(t_uint256,t_address)"
      },
      {
        "astId": 32238,
        "contract": "contracts/token/ERC721/ERC721Test.sol:ERC721Test",
        "label": "_balances",
        "offset": 0,
        "slot": "3",
        "type": "t_mapping(t_address,t_uint256)"
      },
      {
        "astId": 32242,
        "contract": "contracts/token/ERC721/ERC721Test.sol:ERC721Test",
        "label": "_tokenApprovals",
        "offset": 0,
        "slot": "4",
        "type": "t_mapping(t_uint256,t_address)"
      },
      {
        "astId": 32248,
        "contract": "contracts/token/ERC721/ERC721Test.sol:ERC721Test",
        "label": "_operatorApprovals",
        "offset": 0,
        "slot": "5",
        "type": "t_mapping(t_address,t_mapping(t_address,t_bool))"
      },
      {
        "astId": 580,
        "contract": "contracts/token/ERC721/ERC721Test.sol:ERC721Test",
        "label": "_owner",
        "offset": 0,
        "slot": "6",
        "type": "t_address"
      },
      {
        "astId": 33449,
        "contract": "contracts/token/ERC721/ERC721Test.sol:ERC721Test",
        "label": "tokenIdCounter",
        "offset": 0,
        "slot": "7",
        "type": "t_struct(Counter)34815_storage"
      },
      {
        "astId": 33451,
        "contract": "contracts/token/ERC721/ERC721Test.sol:ERC721Test",
        "label": "baseURI",
        "offset": 0,
        "slot": "8",
        "type": "t_string_storage"
      }
    ],
    "types": {
      "t_address": {
        "encoding": "inplace",
        "label": "address",
        "numberOfBytes": "20"
      },
      "t_bool": {
        "encoding": "inplace",
        "label": "bool",
        "numberOfBytes": "1"
      },
      "t_mapping(t_address,t_bool)": {
        "encoding": "mapping",
        "key": "t_address",
        "label": "mapping(address => bool)",
        "numberOfBytes": "32",
        "value": "t_bool"
      },
      "t_mapping(t_address,t_mapping(t_address,t_bool))": {
        "encoding": "mapping",
        "key": "t_address",
        "label": "mapping(address => mapping(address => bool))",
        "numberOfBytes": "32",
        "value": "t_mapping(t_address,t_bool)"
      },
      "t_mapping(t_address,t_uint256)": {
        "encoding": "mapping",
        "key": "t_address",
        "label": "mapping(address => uint256)",
        "numberOfBytes": "32",
        "value": "t_uint256"
      },
      "t_mapping(t_uint256,t_address)": {
        "encoding": "mapping",
        "key": "t_uint256",
        "label": "mapping(uint256 => address)",
        "numberOfBytes": "32",
        "value": "t_address"
      },
      "t_string_storage": {
        "encoding": "bytes",
        "label": "string",
        "numberOfBytes": "32"
      },
      "t_struct(Counter)34815_storage": {
        "encoding": "inplace",
        "label": "struct Counters.Counter",
        "members": [
          {
            "astId": 34814,
            "contract": "contracts/token/ERC721/ERC721Test.sol:ERC721Test",
            "label": "_value",
            "offset": 0,
            "slot": "0",
            "type": "t_uint256"
          }
        ],
        "numberOfBytes": "32"
      },
      "t_uint256": {
        "encoding": "inplace",
        "label": "uint256",
        "numberOfBytes": "32"
      }
    }
  }
}